:020000040800F2
:100000000040012099350008E9350008E93500086D
:10001000E9350008E9350008E9350008000000006E
:10002000000000000000000000000000E9350008AA
:10003000E935000800000000E9350008E93500084E
:10004000E9350008E9350008E9350008E935000818
:10005000E9350008E9350008E9350008E935000808
:10006000E9350008E9350008E9350008E9350008F8
:10007000E9350008E9350008E9350008E9350008E8
:10008000E9350008E9350008E9350008E9350008D8
:1000900021160008E9350008E9350008E9350008AF
:1000A000E9350008E9350008E9350008E9350008B8
:1000B000E9350008E9350008E9350008E9350008A8
:1000C000E9350008E9350008E9350008E935000898
:1000D000E9350008E9350008E9350008E935000888
:1000E000E9350008E9350008E9350008E935000878
:1000F000E9350008E9350008E9350008E935000868
:10010000E9350008E9350008E9350008E935000857
:10011000E9350008E9350008E9350008E935000847
:10012000E9350008E9350008E9350008E935000837
:10013000E93500080000000000000000E935000873
:1001400039170008E9350008E9350008952200084C
:10015000E9350008E9350008E9350008E935000807
:10016000E9350008E9350008E9350008E9350008F7
:10017000E9350008E9350008000000000000000033
:04018000E935000855
:100184000348044B834202D0034B03B11847704722
:10019400100000201000002000000000054806495F
:1001A4000B1AD90F01EBA301491002D0034B03B181
:1001B40018477047100000201000002000000000C5
:1001C40010B5064C237843B9FFF7DAFF044B13B19B
:1001D4000448AFF300800123237010BD10000020F9
:1001E40000000000EC35000808B5044B1BB10449BD
:1001F4000448AFF30080BDE80840CFE700000000EA
:1002040014000020EC35000870B50D4E0D4D761B22
:10021400B61006D00024013455F8043B9847A64292
:10022400F9D1094E094D03F0DFF9761BB61006D05B
:100234000024013455F8043B9847A642F9D170BD17
:100244001C3700081C370008203700081C3700083A
:10025400844641EA000313F0030349D1403A23D30F
:100264000B6803604B6843608B688360CB68C36032
:100274000B6903614B6943618B698361CB69C3611A
:100284000B6A03624B6A43628B6A8362CB6AC36202
:100294000B6B03634B6B43638B6B8363CB6BC363EA
:1002A40040304031403ADBD230320BD30B6803602C
:1002B4004B6843608B688360CB68C3601030103137
:1002C400103AF3D20C3205D351F8043B40F8043B06
:1002D400043AF9D2043208D0D2071CBF11F8013B0A
:1002E40000F8013B01D30B8803806046704700BFD0
:1002F400082A13D38B07B1D010F00303AED0C3F197
:100304000403D21ADB071CBF11F8013B00F8013BC0
:10031400A4D331F8023B20F8023B9FE7043AD9D337
:10032400013A11F8013B00F8013BF9D20B78037054
:100334004B7843708B78837060467047F0B48607BF
:1003440046D0541E002A3CD0CAB2034602E014F13F
:10035400FF3436D303F8012B9D07F8D1032C29D998
:10036400CDB245EA05250F2C45EA054533D9A4F15C
:100374001006360903F1200707EB061703F11002F4
:1003840042E9045542E902551032BA42F8D1721CCE
:1003940014F00C0F03EB021204F00F0613D0331FFA
:1003A40023F003030433134442F8045B9342FBD168
:1003B40006F003042CB1C9B21C4403F8011B9C428F
:1003C400FBD1F0BC704734461346002CF3D1F8E758
:1003D40014460346C2E71A462646E0E700F00F003B
:1003E40009288CBF37303030704700BF002A45D011
:1003F400013A30B4013001EB52054C1E19E0A2F170
:100404005703DBB2637010F8011CA1F13002D2B2C1
:10041400092A05D9A1F16102052A1DD8A1F15702C3
:100424001201D2B21A4304F8012FA54200F10200CE
:1004340022D00278A2F13003DBB2092BE2D9A2F177
:100444006103052BDBD9A2F14103052B96BFA2F171
:100454003703FF23DBB2D5E7A1F14102052A8FBFA1
:10046400F022A1F137021201D2B21A4304F8012F8B
:10047400A54200F10200DCD130BC7047704700BFD8
:1004840010B4C179A1F13003DBB2092B07D9A1F172
:100494006103052B00F28B80A1F15703DBB2817954
:1004A400A1F13002D2B2092A0CD9A1F16102052AC4
:1004B40040F2A480A1F14102052A00F2B580A1F125
:1004C4003702D2B2447943EA0211A4F13003DBB219
:1004D400092B0CD9A4F16103052B40F29380A4F1FC
:1004E4004103052B00F29880A4F13703DBB20479B1
:1004F40041EA0322A4F13001C9B209290BD9A4F1BC
:100504006103052B62D9A4F14103052B00F2888015
:10051400A4F13701C9B2C47842EA0133A4F130022C
:10052400D2B2092A0AD9A4F16102052A56D9A4F142
:100534004102052A7AD8A4F13702D2B2847843EA78
:100544000241A4F13003DBB2092B0AD9A4F16103FF
:10055400052B5BD9A4F14103052B63D8A4F1370320
:10056400DBB2447841EA0352A4F13003DBB2092B35
:100574000AD9A4F16103052B2CD9A4F14103052B5D
:100584004CD8A4F13703DBB2017842EA0363A1F14A
:100594003000C0B2092806D9A1F16102052A21D888
:1005A400A1F15700C0B243EA007010BC7047A1F13A
:1005B4004103052B2ED8A1F137038179DBB2A1F1D8
:1005C4003002D2B2092A7FF67DAF6EE7A4F157015B
:1005D400C9B2A0E7A4F15703DBB2D5E7A4F15702EF
:1005E400D2B2ABE7A1F14102052A8EBFFF20A1F1EF
:1005F4003700C0B243EA007010BC7047A1F1570243
:10060400D2B25FE7A4F15703DBB270E7A4F157035A
:10061400DBB2A6E7FF2342E7FF2368E7FF23B3E744
:10062400FF2178E7FF239CE7FF224BE7FF2285E7C2
:10063400A0F13002D2B2092A05D9A0F16103052B39
:100644001BD85738C2B2A1F13003DBB2092B05D94C
:10065400A1F16103052B05D8A1F157031B01D8B201
:1006640010437047A1F14103052B8FBFF020A1F186
:1006740037031B01D8B210437047A0F14103052B87
:1006840096BF3738FF22C2B2DDE700BFEAB1F0B44B
:1006940000240244561E451E15F8010F0F190309C4
:1006A4009F288CBF373330333B702B78621C03F0A8
:1006B4000F03092B8CBF37333033D2B20234AE422E
:1006C400E4B28B54E8D1F0BC70477047304A4FF421
:1006D400A0611346106840F4803010601A689003DB
:1006E40051D510B400242B4A2949106840F0030066
:1006F4001060106840F400701060106840F480606E
:100704001060106840F4807010605A685C605A6829
:1007140042F000625A605A6842F480025A605A6891
:1007240042F480325A605A6842F480525A605A68DD
:1007340042F400525A605A6842F004025A605A68FD
:1007440042F002025A609A689A609A6842F400423F
:100754009A609A6842F480529A609A6842F480627D
:100764009A601A6842F080721A600B689A01FCD58C
:100774008B68074A43F002038B6093681B07FCD520
:10078400002010BC70470139A8D10120704700BF78
:1007940000380240003C0240194B10B41A6B00218F
:1007A40042F001021A631C6B164844F002041C63F5
:1007B4001C6B154A44F080041C631C6C44F00074E8
:1007C4001C641C6C44F080641C645C6C44F48054B1
:1007D4005C645C6B44F080045C631C6C44F0805487
:1007E4001C645C6C44F480445C64036A0162436A84
:1007F4004162136A1162536A10BC5162704700BFB0
:1008040000380240000002400004024010B40446D4
:100814000FC984E80F00204610BC704710B404468A
:100824000FC984E80F00204610BC704730B404465A
:100834008D7ACB7A084843EA052303FB02F39BB283
:10084400A0FB03235B095BBA4B810FC984E80F004B
:10085400204630BC704700BF1F85EB51642AF0B5B9
:1008640005460DD04E7B887B314C40EA062002FBC6
:1008740000F2A4FB02025009C2F3473288734A73A0
:10088400DBB90B73CE88701E00283EDD00231C46A6
:100894001A460A440133127ADBB2834214441A46DC
:1008A400F7DBE4B20B784A78134433441C44CC732A
:1008B4000FC985E80F002846F0BD0A7B022AE1D063
:1008C400642BDFD01B4F3868824220D0DFF86CC025
:1008D40098BFC0F1FF00DCF800608CBF101A8018CC
:1008E400DFF854E0C0F387000644DEF800409E427F
:1008F400CCF8006004EB80000DD8CEF800003A601C
:100904000873CE88701E0028C0DC0024CAE70A4B96
:1009140018680873F5E7F4B2B4FBF3F403FB14634B
:10092400A400E4B22044CEF80000CCF80030E6E79E
:100934001F85EB5130000020340000202C000020E3
:1009440030B449F203540B880546A3421FD044F245
:100954000310834215D11748174B04781B781748A6
:10096400A34228BF234604781548A34228BF234640
:100974000078834228BF0346934202D300238B604E
:10098400CB600FC985E80F00284630BC70470C7A4D
:100994008A7A0B48094B04701A700C7B0548064B85
:1009A4008A7B04701A700FC985E80F00284630BC92
:1009B400704700BF02000020030000200100002057
:1009C40000000020642A10B4044608D00B7B0748BA
:1009D40003FB02F3DBB2A0FB03235B090B730FC918
:1009E40084E80F00204610BC704700BF1F85EB5100
:1009F40010B404460B7A074803FB02F3DBB2A0FBF6
:100A040003235B090B720FC984E80F00204610BC56
:100A1400704700BF1F85EB5110B404460FC984E82A
:100A24000F00204610BC704710B404460FC984E878
:100A34000F00204610BC704710B404460FC984E868
:100A44000F00204610BC704710B404460FC984E858
:100A54000F00204610BC704710B404460FC984E848
:100A64000F00204610BC704710B404460FC984E838
:100A74000F00204610BC704710B404460FC984E828
:100A84000F00204610BC704710B404460FC984E818
:100A94000F00204610BC704710B404460FC984E808
:100AA4000F00204610BC7047642A70B4044607D176
:100AB40003B98B810FC984E80F00204670BC7047CE
:100AC400087B4D7B1F281CD9184E2038A6FB0565D2
:100AD400C0B2C0EB001000EBD50002FB00F21448DA
:100AE400B2F5C86FA0FB02504FEA501016D3002293
:100AF4000F380F2802F10102FAD82032D2B29F2A0D
:100B040004D9002020220A734873D1E7074DC0EBB3
:100B14000020A5FB0050C0F3C700F4E70F22C0EB90
:100B24000020B0FBF2F0C0B2ECE700BF89888888EF
:100B34001F85EB5100226FF0F023022930B4C0E985
:100B4400023342803AD08D4A0388C26163B90121DD
:100B5400D7228B4B81700281C3608A4B8A4AC0E9D9
:100B64000433826130BC7047012B5DD0022B4FD01F
:100B7400032B00F09180042B7BD0052B00F09E808A
:100B8400062B62D0072B00F0AD80082B00F0BB8051
:100B9400092B00F0CC800A2B00F0DD800B2BE1D177
:100BA4000124B422794B022984700281C36034D1B8
:100BB40040F66C226C23828083712EE04FF0643403
:100BC4006E4A03884460C2615BB90125D72446F6A6
:100BD40069516E226A4B8570048181808271C36081
:100BE400BBE7012B26D0022B5DD0032BC3D10125FB
:100BF400B42440F66E216E22644B8570048181809A
:100C04008271C360624B604AC0E904338261A9E720
:100C1400012240F299338270C3815E4B5A4AC0E983
:100C2400043330BC82617047B421584A8370018117
:100C3400C260F2E7B42540F66C246C21534A8370F9
:100C4400058184808171C260E7E740F2411201248A
:100C5400514B0229C36008BF504B5149028108BF60
:100C64004360504A504BC0E90612C0E90433847013
:100C740078E740F26523012202298270038183818F
:100C840004D147F27442642382808371474B3E4A05
:100C9400C0E90433826165E70121B4223B4B8170D2
:100CA4000281C360AEE7012440F2993146F2644206
:100CB40070238470C18182808371AEE701244FF474
:100CC4008E723B4B022984700281C36004D146F6C4
:100CD4006E626C2382808371364B374AC0E90433D9
:100CE40082613FE71122354B02290281C36004D19E
:100CF40046F66912692382808371314B314AC0E917
:100D0400043382612EE701244FF405722E4B02292D
:100D140084708281836004D146F66E626923828086
:100D240083712A4B274AC0E9043382611AE70124FC
:100D34004FF40572244B022984708281836004D1AC
:100D440046F66E62692382808371214B1D4AC0E995
:100D54000433826106E740F26523012202290381FC
:100D6400838108BF1B4B0849827008BF43601A4A3D
:100D74001A4BC0E90612C0E90433F3E6110800086F
:100D8400D70099032108000831080008B40099032A
:100D94003D0A00086108000841016C046E6E6E96FD
:100DA4009D0A00087D0A00085D0A0008AD0A0008D3
:100DB4001C017802C9090008F50900081100500156
:100DC4006D0A00088D0A0008140215021D0A0008A5
:100DD4002D0A000874746460450900084D0A00086F
:100DE400002108B5034B5C2203481960FFF7A6FAFB
:100DF400012008BDB80000200C0A00202DE9F043B2
:100E0400C0F30729C4B2A9EB040383B0062BADF8E1
:100E1400040071D9DFF82C8104F1080518F80430B6
:100E2400402B69D0232B67D0631CAB423BD218F80C
:100E34000330402B60D0232B5ED0A31CAB4232D2B4
:100E440018F80330402B57D0232B55D0E31CAB426A
:100E540029D218F80330232B4ED0402B4CD0231D1D
:100E64009D4220D918F80330232B45D0402B43D082
:100E7400631D9D4217D918F80330232B3CD0402B17
:100E84003AD0A31D9D420ED918F80330232B33D03A
:100E9400402B31D0E31D9D4205D918F80330232B94
:100EA4002AD0402B28D008EB0400FFF7E9FA234F9F
:100EB400A94538601CD30634444405E06378212BEB
:100EC40021D001354D4513D814F8010B2328F5D151
:100ED400BE6C0F2E22D821786078FFF7A9FBBB6C7B
:100EE40001353E4401334D4586F84C00BB64EBD9D3
:100EF400012003B0BDE8F083012200200F4B1A60EB
:100F040003B0BDE8F08308EB050313F8031CFFF7F7
:100F14008FFBA9EB05094845786005D00123002023
:100F24003B6003B0BDE8F083691C0544A942DFD8E7
:100F3400024641440248FFF78BF9D9E70C0A002026
:100F4400140A002038000020F0B52E4B2E4D1F68E7
:100F540083B0B7B9A9B1D5F800E03B4674462B4E2F
:100F64000133DAB27F2C134605D8012710F801CBE0
:100F740006F804C03C448A42F2D3002F3FD02C60D0
:100F840001E0224E2C6801230020FF2704E01A46CA
:100F94000133A242DBB213D85A1ED2B2B11811F8EF
:100FA400011C4029F3D1B25C532A14D0452AEED156
:100FB4001A46D81EA24203F10103C0B2DBB2EBD938
:100FC40087428DF804708DF8050010D37F2C04D867
:100FD400022003B0F0BD1F46D9E700245C2221465D
:100FE40008482C60FFF7AAF9204603B0F0BD019829
:100FF400FFF704FF0028F0D0012003B0F0BD7446D1
:10100400C1E700BF0C0A0020B8000020380000200F
:10101400384B1A6822F440721A609A6822F44072BB
:101024009A60DA6822F44072DA601A6842F48072D4
:101034001A601A6A42F480321A621A6A42F48022EE
:101044001A629A6942F010029A611A6822F44062A4
:101054001A609A6822F440629A60DA6822F4406264
:10106400DA601A6842F400621A609A6842F44062D4
:101074009A601A6A42F480121A621A6A42F480026E
:101084001A621A6822F440521A609A6822F4405292
:101094009A60DA6822F44052DA601A6842F4005224
:1010A4001A609A6842F440529A601A6A42F0807256
:1010B4001A621A6A42F080621A621A6822F4404282
:1010C4001A609A6822F440429A60DA6822F4404234
:1010D400DA601A6842F400421A609A6842F44042A4
:1010E4009A601A6A42F080521A621A6A42F0804286
:1010F4001A6270470000024070B40026204C9DF82C
:101104000C5026606660266832432260626815438C
:10111400656078B9226842F004022260226842F0D5
:1011240038022260226842F480722260226842F40B
:1011340000722260124A0129106843EA0003136016
:10114400136823F002031360136823F00103136090
:101154000ED1082053680B4943F080035360536851
:1011640043F040035360536843F0200353604860E6
:10117400034A70BC136843F040031360704700BF18
:101184000030014000E100E070B400214FF6FF742C
:101194000D4D8BB21B1B18BF0123AA68013182F0CD
:1011A400020213EA5203F4D14FF6FF76064CE860CC
:1011B4009AB2921B18BF0122A16801338A43F7D166
:1011C400E06870BCC0B270470030014000214FF6A7
:1011D400FF7030B40E4C8BB21B1A18BF0123A268E7
:1011E400013182F0020213EA5203F4D1FF224FF6D6
:1011F400FF750748E2609AB2521B18BF012281684A
:1012040001338A43F7D130BCC068C0B2704700BF15
:10121400003001402DE9F04F0468A7B0022C65D0DE
:1012240014F5801F00F08C80B4F5206F00F0B180BD
:10123400B4F52B6F63D0B4F52A6F054600F0BB807C
:1012440040F601239C4200F0E58040F603239C42D3
:1012540064D040F604239C4260D040F605239C42AF
:101264005CD040F606239C4200F0E28040F607235F
:101274009C4253D040F608239C424FD0032C00F0EC
:101284002481042C00F0CD80052C00F0D880062C9D
:1012940000F07581072C00F09081082C00F09181FA
:1012A400B4F17F4F00F0A2810E2C1FD18288402A16
:1012B40022D890F84C4090F84D1090F84E30240409
:1012C40044EA01240830CE491C43FFF78FF800227A
:1012D400AB8821460092CB48C94A5B0801F042FA28
:1012E400012800F08381FFF77BFD05E0FFF778FD1F
:1012F4000421C54801F0DEF827B0BDE8F08F00F006
:1013040045FA082206A9FFF7C1F9102106A801F041
:10131400D1F8FFF765FD27B0BDE8F08F05F10800AF
:10132400FFF7AEF801462046C9B200F033FA0421B3
:10133400B54801F0BFF8FFF753FD27B0BDE8F08FC3
:1013440000250A26FFF74CFDB04A03AB07CA03C3C6
:10135400AC4C23F8022B110C19702A4620464FF08E
:10136400FF3101F089F92946334603AA2046009546
:1013740001F0F8F9294620463346009506AAA660EE
:1013840001F0C4FA314606A801F094F827B0BDE88C
:10139400F08F802400219B482346994A0091846061
:1013A40001F0B4FA2146964801F084F8FFF718FDDD
:1013B40027B0BDE8F08F90F84C4090F84D2090F89D
:1013C4004E3024048F4D44EA02241C4322464FF03D
:1013D400FF31284601F050F94FF6FF7001F030F963
:1013E400002700F0D3F98026024621462846082328
:1013F400009701F0B7F9214628463346804A009702
:10140400AE6001F083FA31467D4801F053F8FFF7EE
:10141400E7FC71E70830FFF733F80146204689B24C
:1014240083E78188083001F045F8FFF7D9FC63E7CA
:101434000830FFF725F8014640F6062074E7B0F8B7
:101444004F8090F84C4090F84D3098FA98F81FFA75
:1014540088F890F84E20240444EA0324B8F17F0F5E
:10146400434644EA020440F2C6804FF0800B654FC5
:101474004FF00009BA46A8F1800828F07F065E44C0
:10148400264406AD802321462A465046CDF80090D6
:10149400C7F808B01C4401F039FA8021284601F04D
:1014A40009F8B442EED108F07F0398460022314691
:1014B400009254482A46BB6001F028FA4146284667
:1014C40000F0F8FFFFF78CFC16E72024504B0020B7
:1014D40006938DF81C40FEF781FF0346E8788DF8EB
:1014E4001D30FEF77BFF2B688DF81E00C3F30750F9
:1014F400FEF774FF0346A8788DF81F30FEF76EFFE1
:101504002B688DF82000C3F30730FEF767FF03460E
:1015140068788DF82130FEF761FF2B688DF8220082
:10152400C3F30710FEF75AFF034628788DF82330DB
:10153400FEF754FF034646F27011A86C354A8DF845
:101544002430354BC0F30710CDE90A23ADF826103B
:101554008DF82540FEF742FF034695F848008DF8C4
:101564003030FEF73BFF03461B2106A88DF83130CF
:101574008DF8324000F09EFFFFF732FCBCE690F895
:101584004C3090F84D1090F84E201B0443EA012390
:101594001C484FF0FF311A4301F06EF84FF6FF700C
:1015A40001F04EF80446FFF71BFC012C7FF4A4AEB7
:1015B4000421154800F07EFF9EE6124801F052F91E
:1015C400ECE7002290F84C3090F84D0095F84E105E
:1015D4001B0443EA0023009219430A48AB8805F12F
:1015E400080201F0BFF801287FF47DAE042106480B
:1015F40000F060FF77E62646024F06AD56E700BFCF
:10160400BC000020A80E00200400002004360008BE
:1016140020636F6D72616D5F636E7420434BDB6892
:10162400980700D17047F0B589B0414C04AE002151
:10163400304601F0A3FEE2789DF810009DF81150A9
:10164400D10745EA0025B4F90A102DB24CBF002792
:101654006779A94223893ED019B2A9423BD0B4F993
:101664000C30A289AB4219D0B4F90E30AB4204D18C
:1016740031466846A369A27998472388062B1ED071
:101684000A2B1CD096E80F0001F01AFE062801D19F
:1016940009B0F0BD01F074FF09B0F0BD2389934295
:1016A400E2D03B466569314668462279A8479DF8F1
:1016B40010309DF8115045EA03252DB2D4E7314688
:1016C4006846E369E279984796E80F0001F0F8FD6F
:1016D4000628DDD0DEE792070CD523881A1F012ADD
:1016E400BDF816200DD9002AB9D02C2106A8FEF782
:1016F40025FEB4E7A28993420AD012B29542B3D12F
:10170400CFE7002AABD09C2106A8FEF717FEA6E778
:101714003B462569314668462279A8479DF8103032
:101724009DF8115045EA03252DB298E70064004066
:101734003C0100200C4BDB689B0700D1704710B5BF
:1017440084B06C460021204601F08EFE94E80F0020
:1017540001F058FD042801D104B010BD04B0BDE867
:10176400104001F00DBF00BF00680040054B01466A
:1017740010B50446586AFFF7E7FB0246024B2046C1
:101784001A6010BDB40E0020080000200048704705
:101794003C0100206FF4206C60440B46072807D8F6
:1017A400DFE800F0110616191C041F07174AD1714F
:1017B4007047164AD17888071DD59B07F8D421F0C5
:1017C4000201D1707047114802210380FFF7B2B9BA
:1017D4000E4A117170470D4A517170470B4A91714D
:1017E40070470A49CA78D0070AD5D807E0D422F04E
:1017F4000102CA7070479807DAD51943D17070474F
:10180400DB07D5D542F00102CA7070473C010020C5
:1018140000B54FF4FA7183B0012001F093F94FF44D
:10182400FA71012001F040FA164B1A6822F4404282
:101834001A609A6822F440429A60DA6822F44042BC
:10184400DA601A6842F480421A60DA6842F40042AC
:10185400DA601A6A42F080521A621A6A42F08042CE
:101864001A629A6942F400029A61FFF7D1FB0023DD
:101874001A46194618460093FFF73EFC03B05DF87C
:1018840004FB00BF000402402DE9F04383B0FEF7DF
:101894001DFF4FF08008FEF77FFF012701F0C4FA17
:1018A400FFF7B6FF00F09AFA00F0D4FA4FF4801173
:1018B40090222D4B2D4E1960304683F814839F607F
:1018C40083F8402301F058F862B60025284C082319
:1018D4000095304629462246C6F8088001F016F8DD
:1018E40023880B2B35D839462046FFF723F9A378F4
:1018F400DA0734D41F4B204C1F469E68DFF88480DF
:101904001E4DDFF884904FF6FF73236023685A1E40
:101914002260002BFAD1BB68B34202D0BE6801F04A
:101924002FFEAB69D9F81820134313F0700F0DD0B4
:10193400AB695B060AD4D8F80030012BE3D1104818
:10194400FFF768FC0223C8F80030DCE701F018FE5A
:10195400F1E7022120462580FFF7ECF8C7E74FF4B2
:10196400FA5001F0F7FDC5E700E100E0A80E002001
:101974003C010020000800500C00002000640040DE
:101984000C0A002008000020006800402DE9F04106
:101994001D4DC0EBC00405EB8405EC883CB96C8894
:1019A400022C04D0194E347814F0080802D0012017
:1019B400BDE8F081002840F23F1708BF7F27BA42F4
:1019C400F5D842B12B6944F00804E960EA80347028
:1019D40098474046ECE74FF4002100F12073483368
:1019E4005B011A61196119691046C90CC9041961AE
:1019F4001A6842F004421A60D3F8002242F004420A
:101A0400C3F80022D4E700BFB40E00205C09002014
:101A1400314A938833B1118801295BD042F2210104
:101A2400884201D000207047012170B42B4C1180F2
:101A34002068916840F00060C91A2060012B916011
:101A440003F1FF300C7883B0908027D04D78981E36
:101A5400022B8DF80150908020D08D78D81E032B56
:101A64008DF80250908019D0CD78181F042B8DF872
:101A74000350908012D00D79581F052B8DF8045017
:101A840090800BD04D79981F062B8DF805509080CF
:101A940004D08979073B8DF806109380104BBDF86C
:101AA4000400997998800020082918BF9DF8061031
:101AB4009DF80160BDF8025018BF997107491C7068
:101AC4005E705D800B68108043F004430B6003B0CC
:101AD40070BC704708467047B40E0020000B0050DD
:101AE400600900202DE9F04FDFF8ECC2C0EBC00123
:101AF4000CEB81014A88034685B0C000012A01909D
:101B040000F08480C888C8B9022A00F04D8103F12E
:101B1400207358335B011A68AD4D42F004421A60D9
:101B2400A3F500731C682A7844F0006422F00802CC
:101B340048802A701C6005B0BDE8F08F002B0CBFF4
:101B440040274FF480773F286CD8012410F0030716
:101B540018BF27464FF0A04B03F12072029248327F
:101B6400520140F4002A4C80C2F810A0156803F515
:101B7400A02945F00445A144CC681560954D07EBB8
:101B840090074FEA0939D2F818E057B126460021E8
:101B9400984656F8043B01318F42C9F80030F8D119
:101BA400434643B144F6206102E0013900F0BE80AF
:101BB4009669B645F9D14FF0A0410026019A204418
:101BC400D21A0CEB82026025D060D6804FF4FA6002
:101BD4000A460D611169890601D50138FAD100253B
:101BE4007B4C029A2078019900F0F7002070284677
:101BF40058325201CB1A11680CEB830C41F00441AA
:101C04001160ACF8025005B0BDE8F08F104603F146
:101C1400207358335B01196841F00441196005B021
:101C2400BDE8F08F874228BF0746012417F03F091B
:101C340018BF4FF0010917F0030A18BFA24603F1B9
:101C44002072029209EB97194832520147EAC949B6
:101C54004C80C2F81090156803F5A02BA34445F0FE
:101C64000445CC685B4E07F03F0115600AEB970A08
:101C74004FEA0B3B0391254600219846D2F818E021
:101C840055F8043B01315145CBF80030F8D14346B7
:101C94003BB144F6206101E0013965D09569AE4558
:101CA400FAD14FF0A04560260199C01BC91A0CEB6C
:101CB400810180B23C44CC60C88029462E614FF437
:101CC400FA650C69A70601D5013DFAD103990843C9
:101CD40085D14FF4002114681469146910611161ED
:101CE4001169C90CC9041161116841F00441116002
:101CF40010690028FCD1D2F80012019C41F0044183
:101D0400C2F80012E31A324C11680CEB830C2378EE
:101D140041F00061ACF8020023F00803116011687F
:101D240023701369136905B0BDE8F08F2E682E691E
:101D34002E691161C2F810A0116841F004411160CC
:101D440091690F293FF61FAF012B7FF41CAF60216F
:101D5400CBF810104FF4FA61DBF81060B6067FF58B
:101D640012AF0139F8D10EE735683569356911616B
:101D7400C2F81090116841F00441116091690F2973
:101D84003FF679AF012B7FF476AF60214FF0A04589
:101D940029614FF4FA614FF0A0452D69AD067FF536
:101DA4006AAF0139F7D166E74FF4002103F12072DD
:101DB40048325201106111611169C90CC9041161E1
:101DC400116841F00441116010690028FCD192E7C8
:101DD4005C09002020090050B40E00201C4B1A6836
:101DE40022F440021A601A6842F400021A609A68E7
:101DF40022F440029A609A6842F440029A60DA68D7
:101E040022F44002DA605A6A42F400525A625A6A70
:101E140042F400425A621A6822F040721A601A6848
:101E240042F000721A609A6822F040729A609A68CE
:101E340042F040729A60DA6822F04072DA605A6ABC
:101E440042F400325A625A6A42F400225A627047DB
:101E540000000240F0B400234FF0A04101244FF4ED
:101E64001025022280203B4E4FF0FF3733708C60E8
:101E7400394E3A4C8E618D636260394D394A2B601C
:101E8400CA60CA68302622F47052CA60CA6808253B
:101E940042F4C052CA604862334A34488A62C1F884
:101EA4000401334A3348C1F80831C2F80431C2F896
:101EB4000831C2F80C31C2F81031C2F81431C2F83A
:101EC4001831C2F81C31C2F82031C2F82431C2F8EA
:101ED4002831C2F82C31C2F83031C2F83431C2F89A
:101EE40038310361026942F400220261026942F05E
:101EF40040020261026942F0C0420261026842F09B
:101F04000442026022681C4842F0030222604F61CE
:101F140061681A4A21F002016160C2E90033C2E932
:101F24000733C2E90E3313641549164B5061164C3E
:101F34001648516213631649164B946080F8436344
:101F440091618560516311651361D3629364F0BC40
:101F5400704700BF5C09002018100C0000080050F6
:101F6400000E00504000004080004000C00080008F
:101F740008000050000B0050151A0008B40E002091
:101F840074090020152500086C09002000E100E018
:101F940091190008E91A000870B50024A0B06E4E2B
:101FA40021467C2201A8F5880094FEF7C7F9308801
:101FB400B0F5106F4AD018D8B0F5A06F4AD0B0F57C
:101FC400D06F24D140F20532738893422FD8B3F5F1
:101FD400407F5AD36FF440721344042B00F2AF8055
:101FE400DFE803F0897D7165950042F2A113984200
:101FF4003CD042F2212398420FD125466B46574EDE
:102004002A4619460020B469A04720B070BDB0F537
:10201400817FFAD06B46514EF2E742F22103984297
:10202400F8D14E4E2546736998476B46E8E7B3F5F9
:10203400C06FEAD10A2D6B4628BF0A2518462A46E6
:102044004749FEF705F9454E0346D9E725466B4651
:10205400424ED5E70220434A74881368424943EA52
:10206400041313603D4E6B460870C9E7072D6B4699
:1020740028BF072518462A463C49FEF7E9F80421FB
:10208400394A0346354E1170BAE7B3F5807F4AD01A
:10209400B3F5007FB9D1432D6B4628BF43251846BD
:1020A4002A463349FEF7D4F82C4E0346A8E7162DEA
:1020B4006B4628BF162518462A462E49FEF7C8F84F
:1020C400264E03469CE71A2D6B4628BF1A25184650
:1020D4002A462949FEF7BCF8204E034690E72C2DEA
:1020E4006B4628BF2C2518462A462449FEF7B0F82B
:1020F4001A4E034684E7262D6B4628BF262518462C
:102104002A461F49FEF7A4F8144E034678E71C2D0F
:102114006B4628BF1C2518462A461A49FEF798F82C
:102124000E4E03466CE7122D6B4628BF1225184647
:102134002A461549FEF78CF8084E034660E7042D3D
:102144006B4628BF042518462A461049FEF780F836
:10215400024E034654E700BFF4090020B40E0020E9
:1021640080360008000800505C0900206009002047
:102174001036000854360008E4360008B836000863
:1021840090360008003700086C3600088C360008CA
:10219400F8B5384C2188002938D0C1F50063B3F56F
:1021A400007F1CD332D1344B1A691E691D689F68A5
:1021B400324B33481B78C2F312023040024383F09F
:1021C4000803C3F3C00318BF0023002DB4BF0023CA
:1021D40003F001030BB13B0631D40120F8BD4FF0ED
:1021E400A04228489369858B23F01003012D936145
:1021F400D9D00126244D204B2A68868342F0006200
:102204002A601A691E691D689F68D1E74FF0A042D1
:102214001C489369858B43F0100393613DB10023FF
:102224008383D2F8203B43F00443C2F8203B124896
:1022340002690669056887680029CED0B8E7B1F558
:10224400807F0A4628BF4FF480728B18B3F5006F65
:10225400A8BF0023C1F50060A8BF82B20B4D094896
:10226400B8BF9BB22944456B01202380A8470020B6
:10227400F8BD00BF68090020200900505C09002057
:102284000000F81FB40E0020200B00505C01002059
:10229400F8B54FF0A044636913F0080334D16069C2
:1022A40010F4805049D163695B0307D4636913F464
:1022B400002369D16269D2062DD4F8BD704B9C69A4
:1022C400E7070ED5D3F80851EE0702D56D4B1B690D
:1022D40098474FF0A04253696B4903F4802353613C
:1022E4008D60A107E9D5694CA368DA07E5D5654B8C
:1022F4000120DB6A98474FF0A0420121536903F49F
:1023040080235361A160F8BDFFF742FF636903F0C6
:1023140008036361F8BD216AA269C1F3434022F056
:1023240010020228A26164D006285BD04FF0A042BC
:10233400936943F010039361F8BD012009254FF020
:1023440003166269524902F48052626108704C4972
:1023540062696361CE614D61086108684D4A20F489
:10236400FE600860494C4C494C4D4D482560116055
:10237400136113694B4943F400231361136943F058
:10238400400313610860F8BD63693D4A03F4002308
:1023940063619469E30307D5434B9D682F071ED4FB
:1023A400EE0712D4404B9D60A00386D5394DAC682E
:1023B400E10707D5334B00201B6B98472B6843F08C
:1023C40004432B60334B9C60F8BD2E4B00205B69AB
:1023D4009847354A136843F004431360E2E7FFF774
:1023E400DBFDDDE7314A324B1168196012685A602F
:1023F4009CE747F6F072114298D011F0300018BFF4
:10240400012001F00F071F4EC1F38814C7EBC70268
:1024140006EB82020019D2F808C04FEAC70EC1F3D6
:102424000A110ED06246214D2C680133984242F8BD
:10243400044BF9D1AEEB07030CEB800006EB8303EE
:1024440098608FB1002207F1207358335B011A6141
:102454001A6942F400221A611A6942F040021A61B0
:102464001A6842F004421A60AEEB070306EB8303DA
:1024740098880CEB010201449A60998056E700BFEA
:1024840000080050B40E002000090050200900503C
:102494005C090020200B00504080088440804808DC
:1024A40008808C0840090050000B005000100050B8
:1024B400F409002070B5124C124B2569124A2669A2
:1024C4001B783240C5F312052A4383F00803C3F393
:1024D400C00318BF00232268002AB4BF002303F0FE
:1024E40001030A46A1684BB10B0607D532B1074B6D
:1024F40001465B6B01209847002070BD012070BD30
:10250400200900505C0900200000F81FB40E0020D0
:1025140038B50E4B0446988B012816D00025188C2C
:102524005A6A1D84121A5A62FFF720F92046084B92
:102534001D611A6942F400221A611A6942F04002CC
:102544001A611A6842F004421A6038BDB40E0020C1
:10255400200B00502DE9F04106460F4615464FF674
:10256400FF78364CA369052043F48013A361FEF77A
:102574000BFEFEF72BFEA36908F1FF3843F01003AE
:10258400A361B8F1000F01D0C207EBD404232B4C94
:10259400B360A369062043F48013A361FEF7F4FD3E
:1025A400A369022043F01003A361A36943F48013D9
:1025B400A361FEF7E9FDC7F30740FEF7E5FDC7F3A6
:1025C4000720FEF7E1FDF8B2FEF7DEFD2C1D15F83D
:1025D400010BFEF7D9FDAC42F9D1184F4FF6FF7548
:1025E4003C46BB69042043F01003BB61BB6943F460
:1025F4008013BB61FEF7C8FDBB6943F01003BB61E8
:10260400A369052043F48013A361FEF7BDFDFEF723
:10261400DDFDA369013D43F0100300F00102A36155
:102624000DB1C307ECD402F0FF031AB90120B36063
:10263400BDE8F0810020BDE8F08100BF0000024049
:1026440038B50546A8B10B4CA369052043F48013A3
:10265400A361FEF799FDFEF7B9FDA369013D43F0BF
:10266400100300F00102A3610DB1C307ECD4C2F161
:10267400010038BD000002402DE9F8430D46144620
:102684004FF6FF77364EB369052043F48013B361E8
:10269400FEF77AFDFEF79AFDB369013F43F010039C
:1026A400B3610FB1C107EED42D4E0620B36943F4D4
:1026B4008013B361FEF768FDB3696A1C43F010032D
:1026C400B36145D04FF47A444FF0000904FB05F49C
:1026D4004FEA14285FFA88F8C4F30745204C4FF6F4
:1026E400FF772646A369D82043F48013A361FEF73D
:1026F4004BFD2846FEF748FD4046FEF745FD48469B
:10270400FEF742FDA369042043F01003A361A3690B
:1027140043F48013A361FEF737FDA36943F010036C
:10272400A361B369052043F48013B361FEF72CFD64
:10273400FEF74CFDB369013F43F0100300F00102C2
:10274400B3610FB1C307ECD4C2F10100BDE8F88353
:102754005FFA84F9C4F30728C4F30745BEE700BF52
:10276400000002402DE9F0470746884615461E46FC
:102774004FF6FF7A9DF82090394CA369052043F465
:102784008013A361FEF700FDFEF720FDA3690AF1A3
:10279400FF3A43F01003A361BAF1000F01D0C2075E
:1027A400EBD42F4CBE60A369062043F48013A361CD
:1027B400FEF7EAFCA369022043F01003A361A369B6
:1027C40043F48013A361FEF7DFFCC8F30740FEF770
:1027D400DBFCC8F30720FEF7D7FC5FFA88F0FEF7AE
:1027E400D3FCB9F1000F03D0C9F34000BDE8F08772
:1027F40036B12E4415F8010BFEF7C6FCB542F9D1EB
:10280400174E4FF6FF753446B369042043F01003A6
:10281400B361B36943F48013B361FEF7B5FCB369E4
:1028240043F01003B361A369052043F48013A3614B
:10283400FEF7AAFCFEF7CAFCA369013D43F01003AE
:1028440000F00102A3610DB1C307ECD402F0FF0351
:102854001AB90120BB60BDE8F0870020BDE8F0870D
:102864000000024070B5284C4FF6FF762546A36958
:10287400062043F48013A361FEF786FCA36943F0AA
:102884001003A361AB69052043F48013AB61FEF729
:102894007BFCFEF79BFCAB69013E43F01003AB618C
:1028A4000EB1C207EED4184C4FF6FF762546A36945
:1028B400C72043F48013A361FEF766FCA3690420D8
:1028C40043F01003A361A36943F48013A361FEF7EB
:1028D4005BFCA36943F01003A361AB69052043F4D7
:1028E4008013AB61FEF750FCFEF770FCAB69013E50
:1028F40043F0100300F00102AB610EB1C307ECD446
:10290400C2F1010070BD00BF000002402DE9F0419A
:10291400064680689DF8188008B9BDE8F0810F4626
:102924001446144AB3601D469369032043F480138C
:102934009361FEF729FCC7F30740FEF725FCC7F3B4
:102944000720FEF721FCF8B2FEF71EFCB8F1000FD9
:10295400E3D135B12544FEF739FC04F8010BAC4250
:10296400F9D10021034A936943F010039361B160E4
:10297400BDE8F0810000024030B50024836883B0D4
:102984000546019413B304231F4A8360936903200B
:1029940043F480139361FEF7F7FB1E20FEF7F4FB6C
:1029A4004620FEF7F1FB2046FEF7EEFB01ACFEF7F6
:1029B4000DFC02AB04F8010B9C42F8D10021124A31
:1029C400936943F010039361019BA9600F49104A76
:1029D400581C05D004319142FAD1002003B030BD17
:1029E4000A4B994206D00120019B0439C5E9003104
:1029F40003B030BD00232A462846C5E900310193BF
:102A0400FFF7A8FD0120E9E70000024000461E0090
:102A140020461E004FF6FF72234B9968490105D5E5
:102A24009968C80302D59968890329D4996808016B
:102A340006D5986810F0010002D09968890716D469
:102A44009968C80005D59968C90502D599688805AB
:102A540020D4013AE1D1144B9A68510105D49A6803
:102A6400120102D404209B687047042070479A68BE
:102A740042F001029A609A6842F002029A6070473A
:102A84009A68002042F480329A609A6842F40032D4
:102A94009A6070479A68022042F400729A609A68B9
:102AA40042F480729A607047006400404FF6FF72EF
:102AB400234B9968490105D59968C80302D59968DB
:102AC400890329D49968080106D5986810F0010093
:102AD40002D09968890716D49968C80005D5996801
:102AE400C90502D59968880520D4013AE1D1144B6F
:102AF4009A68510105D49A68120102D406209B6891
:102B04007047062070479A6842F001029A609A68FA
:102B140042F002029A6070479A68002042F48032C0
:102B24009A609A6842F400329A6070479A68022068
:102B340042F400729A609A6842F480729A60704714
:102B440000680040012830B438D1534B1A6822F48D
:102B540040321A609A6822F440329A60DA6822F4A9
:102B64004032DA601A6842F400321A609A6842F419
:102B740040329A605A6A42F001025A625A6A42F03A
:102B840008025A621A6822F440221A609A6822F4EF
:102B940040229A60DA6822F44022DA601A6842F429
:102BA40000221A609A6842F440229A605A6A42F0FB
:102BB40010025A625A6A42F080025A620025374C67
:102BC4003748226C374B42F000722264026842F0AC
:102BD40001020260026822F0020202601D60426883
:102BE400D4070BD440F6FE7405E01A6801321A606B
:102BF4004268D50702D41A68A242F6D9284A506816
:102C0400C0072DD5B1F5FA7F2DD00020244A516993
:102C140041F002015161516941F0100151611168A3
:102C240041F040011160116821F001011160186048
:102C34005168C8070CD5114640F6FE7005E01A68C5
:102C440001321A604A68D20702D51A688242F6D95C
:102C5400134B5A68D10703D4586810F0020000D00F
:102C6400012030BC7047D16921F47021D161D16950
:102C740021F4E001D161D16921F04071D161D169C0
:102C840041F00101D161D16941F47021D161D1696F
:102C940041F4C001D161B8E70004024000380240A9
:102CA40000640040FC090020012830B438D1594B9D
:102CB4001A6822F440621A609A6822F440629A60A8
:102CC400DA6822F44062DA601A6842F400621A6038
:102CD4009A6842F440629A601A6A42F480121A6254
:102CE4001A6A42F400021A621A6822F440521A6004
:102CF4009A6822F440529A60DA6822F44052DA6008
:102D04001A6842F400521A609A6842F440529A6077
:102D14001A6A42F080721A621A6A42F000621A62F7
:102D240000253D4A3D4C136C3D4843F080631364D9
:102D340022683C4B42F001022260026842F0010228
:102D44000260026822F0020202601D604268D40739
:102D54000BD440F6FE7405E01A6801321A6042682A
:102D6400D50702D41A68A242F6D92D4A5068C00782
:102D740033D5B1F5FA7F33D00024294927484A696D
:102D840042F002024A610A6842F040020A600A689C
:102D940022F001020A60026822F0010202601C6053
:102DA4004A68D0070BD540F6FE7005E01A68013278
:102DB4001A604A68D20702D51A688242F6D9184BBB
:102DC4005A68D10709D4586810F0020005D130BC04
:102DD4001A6942F020021A617047012030BC704722
:102DE400D16921F47021D161D16921F4E001D1616B
:102DF400D16921F04071D161D16941F00101D16102
:102E0400D16941F47021D161D16941F4C001D1612A
:102E1400B2E700BF000402400038024000640040F2
:102E240000680040000A002000222F4BD3F8001253
:102E340021F47C51C3F80012D3F8001241F00101CF
:102E4400C3F80012D3F8001241F46061C3F8001211
:102E5400D3F80412C3F80422D3F80C12C3F80C22DA
:102E6400D3F81412C3F81422D3F81C12C3F81C228A
:102E7400D3F84012C3F84022D3F84412C3F84422D2
:102E8400D3F8B012C3F8B022D3F8B412C3F8B42202
:102E9400D3F80C2242F00102C3F80C22D3F80C221E
:102EA40042F48042C3F80C22D3F81422C3F814224B
:102EB400D3F81C2242F00102C3F81C22D3F81C22CE
:102EC40042F48042C3F81C22D3F84022C3F84022C3
:102ED400D3F84422C3F84422D3F8002222F001029A
:102EE400C3F80022704700BF0064004070B400249F
:102EF40085B0089D04AE06E90F002A0102F1804363
:102F040003F5C843D3F88011C3F88041D3F8841182
:102F1400BDF80450C3F88441D3F88811BDF80610F5
:102F2400C3F88841D3F88C61C3F88C41002D40F07C
:102F34008880D3F880419DF801009DF8005044EA50
:102F44004054C3F88041D3F88001082940EA457011
:102F5400C3F88001D3F8840140EA0100C3F8840176
:102F640000F28580002968D002F1804303F5C8434C
:102F7400D3F888419DF80800012940EA0400C3F809
:102F840088015AD0D3F888019DF80940022940EA03
:102F94000420C3F8880107D9D3F888019DF80A40B2
:102FA40040EA0440C3F8880103290BD902F18043A5
:102FB40003F5C843D3F888019DF80B4040EA046048
:102FC400C3F8880104290AD902F1804303F5C843F0
:102FD400D3F88C419DF80C002043C3F88C010529DB
:102FE4000BD902F1804303F5C843D3F88C019DF853
:102FF4000D4040EA0420C3F88C0106290BD902F1E4
:10300400804303F5C843D3F88C019DF80E4040EA91
:103014000440C3F88C0108290FD1002002F180423A
:1030240002F5C842D2F88C319DF80F1043EA0163CF
:10303400C2F88C3105B070BC7047002005B070BC7C
:103044007047D3F88001009C082940EAC400C3F803
:103054008001D3F8800140F00400C3F88001D3F864
:10306400840140EA0100C3F884017FF67BAF0120AC
:1030740005B070BC704700BF70B4002485B0089DD3
:1030840004AE06E90F002A0102F1804303F5D043A0
:10309400D3F88011C3F88041D3F88411BDF80450EB
:1030A400C3F88441D3F88811BDF80610C3F88841E9
:1030B400D3F88C61C3F88C41002D40F08880D3F89C
:1030C40080419DF801009DF8005044EA4054C3F843
:1030D4008041D3F88001082940EA4570C3F8800193
:1030E400D3F8840140EA0100C3F8840100F285802A
:1030F400002968D002F1804303F5D043D3F8884116
:103104009DF80800012940EA0400C3F888015AD058
:10311400D3F888019DF80940022940EA0420C3F845
:10312400880107D9D3F888019DF80A4040EA044091
:10313400C3F8880103290BD902F1804303F5D04376
:10314400D3F888019DF80B4040EA0460C3F8880175
:1031540004290AD902F1804303F5D043D3F88C4102
:103164009DF80C002043C3F88C0105290BD902F10A
:10317400804303F5D043D3F88C019DF80D4040EA19
:103184000420C3F88C0106290BD902F1804303F50E
:10319400D043D3F88C019DF80E4040EA0440C3F8B4
:1031A4008C0108290FD1002002F1804202F5D0429F
:1031B400D2F88C319DF80F1043EA0163C2F88C31C8
:1031C40005B070BC7047002005B070BC7047D3F8E0
:1031D4008001009C082940EAC400C3F88001D3F8A8
:1031E400800140F00400C3F88001D3F8840140EA70
:1031F4000100C3F884017FF67BAF012005B070BCE9
:10320400704700BF30B587B002AD85E80F002A4B88
:103214009B68B3F1E05F4DD0FFF7FCFB0428044644
:1032240037D095E80F000094FFF760FE230103F107
:10323400804303F5C843D3F88011204A41F00101CB
:10324400C3F8801113682BB9136801331360136832
:10325400002BF9D04FF6FF73FCB1174A0AE09168CE
:103264008D0505D59168080102D59168C90511D469
:10327400013B0ED0012CF2D0022CF9D191688D03C0
:10328400F6D59168C800F3D59168C90302D4013B0F
:10329400F0D10424204607B030BD07498A68950759
:1032A40005D58A68500102D58A68D207F2D4013B59
:1032B400F4D1EEE70024B4E700640040040A0020DF
:1032C40030B587B002AD85E80F002A4B9B68B3F197
:1032D400E05F4DD0FFF7EAFB0628044637D095E8B7
:1032E4000F000094FFF7C8FE230103F1804303F5A8
:1032F400D043D3F88011204A41F00101C3F8801172
:1033040013682BB91368013313601368002BF9D0C9
:103314004FF6FF73FCB1174A0AE091688D0505D595
:103324009168080102D59168C90511D4013B0ED0FA
:10333400012CF2D0022CF9D191688D03F6D5916855
:10334400C800F3D59168C90302D4013BF0D1062427
:10335400204607B030BD07498A68950705D58A68B5
:10336400500102D58A68D207F2D4013BF4D1EEE7CA
:103374000024B4E700680040080A00200B0103F1B0
:10338400804202F5C84270B4D2F8B04114F004048B
:103394005DD00126D2F8B041E4080460D2F8B4212B
:1033A40092B2002A40D003F1804303F5C843D3F816
:1033B400B841012A047237D0D3F8B841022A4FEA3F
:1033C4001424447230D0D3F8B841032A4FEA144489
:1033D400847229D0D3F8B841042A4FEA1464C47221
:1033E40022D0D3F8BC41052A04731DD0D3F8BC41C4
:1033F400062A4FEA1424447316D0D3F8BC41082A91
:103404004FEA144484730DD1D3F8BC311B0EC3733B
:10341400A1B91449CB6843F02003CB608680C280F5
:1034240070BC7047072AF3D80823FF25013BDBB2A1
:10343400C4189A422572F9D30029EAD009490B69C4
:1034440043F020030B618680C28070BC7047D2F8C1
:10345400B0512646D2F8B0416D0D640F457004702A
:103464009CE700BF006400400B0103F1804202F5B9
:10347400D04270B4D2F8B04114F004045DD00126F7
:10348400D2F8B041E4080460D2F8B42192B2002A20
:1034940040D003F1804303F5D043D3F8B841012A67
:1034A400047237D0D3F8B841022A4FEA1424447284
:1034B40030D0D3F8B841032A4FEA1444847229D097
:1034C400D3F8B841042A4FEA1464C47222D0D3F862
:1034D400BC41052A04731DD0D3F8BC41062A4FEA27
:1034E4001424447316D0D3F8BC41082A4FEA144478
:1034F40084730DD1D3F8BC311B0EC373A1B9144925
:10350400CB6843F02003CB608680C28070BC7047D8
:10351400072AF3D80823FF25013BDBB2C4189A42DB
:103524002572F9D30029EAD009490B6943F0200335
:103534000B618680C28070BC7047D2F8B0512646B9
:10354400D2F8B0416D0D640F457004709CE700BF64
:103554000068004030B44AF6AA2145F255550724C4
:103564004CF6CC42054B00EB800040091D605C60CA
:10357400986030BC19601A60704700BF003000408A
:103584004AF6AA22014B1A60704700BF003000407F
:10359400704700BFDFF834D00D480E490E4A0023AF
:1035A40002E0D458C4500433C4188C42F9D30B4AF3
:1035B4000B4C002301E013600432A242FBD3FFF75B
:1035C400E7FFFCF721FEFEF75FF97047004001209A
:1035D4000000002010000020243700081000002004
:1035E400080F0020FEE70000F8B500BFF8BC08BCD7
:1035F4009E467047F8B500BFF8BC08BC9E467047AD
:103604006D656D746573745F6F6B00000902430030
:10361400020100C032090400000102020100052475
:1036240000100105240100010424020205240600FF
:10363400010705820308001009040100020A0000C2
:103644000007050102400000070581024000000058
:103654001603430044004300200043006F006E0043
:1036640066006900670000001201000202020040C7
:103674008304405700020102030100000A0600020D
:103684000000004001000000040309042603530065
:1036940054004D006900630072006F0065006C0007
:1036A40065006300740072006F006E0069006300BF
:1036B400730000002C03530054004D00330032000B
:1036C40020005600690072007400750061006C00EF
:1036D400200043006F006D0050006F007200740002
:1036E4001A03340038000000450037003400460057
:1036F4003700360033003000380000001C0343005C
:1037040044004300200049006E007400650072000C
:0837140066006100630065001E
:04371C00ED010008B3
:04372000C5010008D7
:10372400B7B7B7B7244F4B2402000000FFFF0000D7
:040000050800359921
:00000001FF
